{
	"Tmons/facets/TMonFacet.sol": {
		"TMonFacet": {
			"abi": [
				{
					"anonymous": false,
					"inputs": [
						{
							"indexed": true,
							"internalType": "address",
							"name": "_owner",
							"type": "address"
						},
						{
							"indexed": true,
							"internalType": "address",
							"name": "_operator",
							"type": "address"
						},
						{
							"indexed": false,
							"internalType": "bool",
							"name": "_approved",
							"type": "bool"
						}
					],
					"name": "PetOperatorApprovalForAll",
					"type": "event"
				},
				{
					"inputs": [
						{
							"internalType": "address",
							"name": "_owner",
							"type": "address"
						}
					],
					"name": "balanceOf",
					"outputs": [
						{
							"internalType": "uint256",
							"name": "balance_",
							"type": "uint256"
						}
					],
					"stateMutability": "view",
					"type": "function"
				},
				{
					"inputs": [],
					"name": "totalSupply",
					"outputs": [
						{
							"internalType": "uint256",
							"name": "totalSupply_",
							"type": "uint256"
						}
					],
					"stateMutability": "view",
					"type": "function"
				}
			],
			"devdoc": {
				"kind": "dev",
				"methods": {
					"balanceOf(address)": {
						"details": "NFTs assigned to the zero address are considered invalid, and this.  function throws for queries about the zero address.",
						"params": {
							"_owner": "An address for whom to query the balance"
						},
						"returns": {
							"balance_": "The number of NFTs owned by `_owner`, possibly zero"
						}
					},
					"totalSupply()": {
						"returns": {
							"totalSupply_": "the number of all NFTs that have been minted"
						}
					}
				},
				"version": 1
			},
			"evm": {
				"assembly": "    /* \"Tmons/facets/TMonFacet.sol\":111:1092  contract TMonFacet {... */\n  mstore(0x40, 0x80)\n  callvalue\n  dup1\n  iszero\n  tag_1\n  jumpi\n  0x00\n  dup1\n  revert\ntag_1:\n  pop\n  dataSize(sub_0)\n  dup1\n  dataOffset(sub_0)\n  0x00\n  codecopy\n  0x00\n  return\nstop\n\nsub_0: assembly {\n        /* \"Tmons/facets/TMonFacet.sol\":111:1092  contract TMonFacet {... */\n      mstore(0x40, 0x80)\n      callvalue\n      dup1\n      iszero\n      tag_1\n      jumpi\n      0x00\n      dup1\n      revert\n    tag_1:\n      pop\n      jumpi(tag_2, lt(calldatasize, 0x04))\n      shr(0xe0, calldataload(0x00))\n      dup1\n      0x18160ddd\n      eq\n      tag_3\n      jumpi\n      dup1\n      0x70a08231\n      eq\n      tag_4\n      jumpi\n    tag_2:\n      0x00\n      dup1\n      revert\n        /* \"Tmons/facets/TMonFacet.sol\":413:530  function totalSupply() external view returns (uint256 totalSupply_) {... */\n    tag_3:\n      tag_5\n      tag_6\n      jump\t// in\n    tag_5:\n      mload(0x40)\n      tag_7\n      swap2\n      swap1\n      tag_8\n      jump\t// in\n    tag_7:\n      mload(0x40)\n      dup1\n      swap2\n      sub\n      swap1\n      return\n        /* \"Tmons/facets/TMonFacet.sol\":870:1090  function balanceOf(address _owner) external view returns (uint256 balance_) {... */\n    tag_4:\n      tag_9\n      0x04\n      dup1\n      calldatasize\n      sub\n      dup2\n      add\n      swap1\n      tag_10\n      swap2\n      swap1\n      tag_11\n      jump\t// in\n    tag_10:\n      tag_12\n      jump\t// in\n    tag_9:\n      mload(0x40)\n      tag_13\n      swap2\n      swap1\n      tag_8\n      jump\t// in\n    tag_13:\n      mload(0x40)\n      dup1\n      swap2\n      sub\n      swap1\n      return\n        /* \"Tmons/facets/TMonFacet.sol\":413:530  function totalSupply() external view returns (uint256 totalSupply_) {... */\n    tag_6:\n        /* \"Tmons/facets/TMonFacet.sol\":459:479  uint256 totalSupply_ */\n      0x00\n        /* \"Tmons/facets/TMonFacet.sol\":506:507  s */\n      dup1\n        /* \"Tmons/facets/TMonFacet.sol\":506:516  s.tokenIds */\n      0x10\n      add\n        /* \"Tmons/facets/TMonFacet.sol\":506:523  s.tokenIds.length */\n      dup1\n      sload\n      swap1\n      pop\n        /* \"Tmons/facets/TMonFacet.sol\":491:523  totalSupply_ = s.tokenIds.length */\n      swap1\n      pop\n        /* \"Tmons/facets/TMonFacet.sol\":413:530  function totalSupply() external view returns (uint256 totalSupply_) {... */\n      swap1\n      jump\t// out\n        /* \"Tmons/facets/TMonFacet.sol\":870:1090  function balanceOf(address _owner) external view returns (uint256 balance_) {... */\n    tag_12:\n        /* \"Tmons/facets/TMonFacet.sol\":928:944  uint256 balance_ */\n      0x00\n        /* \"Tmons/facets/TMonFacet.sol\":982:983  0 */\n      dup1\n        /* \"Tmons/facets/TMonFacet.sol\":964:984  _owner != address(0) */\n      0xffffffffffffffffffffffffffffffffffffffff\n      and\n        /* \"Tmons/facets/TMonFacet.sol\":964:970  _owner */\n      dup3\n        /* \"Tmons/facets/TMonFacet.sol\":964:984  _owner != address(0) */\n      0xffffffffffffffffffffffffffffffffffffffff\n      and\n      eq\n      iszero\n        /* \"Tmons/facets/TMonFacet.sol\":956:1032  require(_owner != address(0), \"AavegotchiFacet: _owner can't be address(0)\") */\n      tag_16\n      jumpi\n      mload(0x40)\n      0x08c379a000000000000000000000000000000000000000000000000000000000\n      dup2\n      mstore\n      0x04\n      add\n      tag_17\n      swap1\n      tag_18\n      jump\t// in\n    tag_17:\n      mload(0x40)\n      dup1\n      swap2\n      sub\n      swap1\n      revert\n    tag_16:\n        /* \"Tmons/facets/TMonFacet.sol\":1053:1054  s */\n      0x00\n        /* \"Tmons/facets/TMonFacet.sol\":1053:1068  s.ownerTokenIds */\n      0x0e\n      add\n        /* \"Tmons/facets/TMonFacet.sol\":1053:1076  s.ownerTokenIds[_owner] */\n      0x00\n        /* \"Tmons/facets/TMonFacet.sol\":1069:1075  _owner */\n      dup4\n        /* \"Tmons/facets/TMonFacet.sol\":1053:1076  s.ownerTokenIds[_owner] */\n      0xffffffffffffffffffffffffffffffffffffffff\n      and\n      0xffffffffffffffffffffffffffffffffffffffff\n      and\n      dup2\n      mstore\n      0x20\n      add\n      swap1\n      dup2\n      mstore\n      0x20\n      add\n      0x00\n      keccak256\n        /* \"Tmons/facets/TMonFacet.sol\":1053:1083  s.ownerTokenIds[_owner].length */\n      dup1\n      sload\n      swap1\n      pop\n        /* \"Tmons/facets/TMonFacet.sol\":1042:1083  balance_ = s.ownerTokenIds[_owner].length */\n      swap1\n      pop\n        /* \"Tmons/facets/TMonFacet.sol\":870:1090  function balanceOf(address _owner) external view returns (uint256 balance_) {... */\n      swap2\n      swap1\n      pop\n      jump\t// out\n        /* \"#utility.yul\":7:146   */\n    tag_20:\n      0x00\n        /* \"#utility.yul\":91:97   */\n      dup2\n        /* \"#utility.yul\":78:98   */\n      calldataload\n        /* \"#utility.yul\":69:98   */\n      swap1\n      pop\n        /* \"#utility.yul\":107:140   */\n      tag_22\n        /* \"#utility.yul\":134:139   */\n      dup2\n        /* \"#utility.yul\":107:140   */\n      tag_23\n      jump\t// in\n    tag_22:\n        /* \"#utility.yul\":59:146   */\n      swap3\n      swap2\n      pop\n      pop\n      jump\t// out\n        /* \"#utility.yul\":152:414   */\n    tag_11:\n      0x00\n        /* \"#utility.yul\":260:262   */\n      0x20\n        /* \"#utility.yul\":248:257   */\n      dup3\n        /* \"#utility.yul\":239:246   */\n      dup5\n        /* \"#utility.yul\":235:258   */\n      sub\n        /* \"#utility.yul\":231:263   */\n      slt\n        /* \"#utility.yul\":228:230   */\n      iszero\n      tag_25\n      jumpi\n        /* \"#utility.yul\":276:277   */\n      0x00\n        /* \"#utility.yul\":273:274   */\n      dup1\n        /* \"#utility.yul\":266:278   */\n      revert\n        /* \"#utility.yul\":228:230   */\n    tag_25:\n        /* \"#utility.yul\":319:320   */\n      0x00\n        /* \"#utility.yul\":344:397   */\n      tag_26\n        /* \"#utility.yul\":389:396   */\n      dup5\n        /* \"#utility.yul\":380:386   */\n      dup3\n        /* \"#utility.yul\":369:378   */\n      dup6\n        /* \"#utility.yul\":365:387   */\n      add\n        /* \"#utility.yul\":344:397   */\n      tag_20\n      jump\t// in\n    tag_26:\n        /* \"#utility.yul\":334:397   */\n      swap2\n      pop\n        /* \"#utility.yul\":290:407   */\n      pop\n        /* \"#utility.yul\":218:414   */\n      swap3\n      swap2\n      pop\n      pop\n      jump\t// out\n        /* \"#utility.yul\":420:786   */\n    tag_27:\n      0x00\n        /* \"#utility.yul\":583:650   */\n      tag_29\n        /* \"#utility.yul\":647:649   */\n      0x2b\n        /* \"#utility.yul\":642:645   */\n      dup4\n        /* \"#utility.yul\":583:650   */\n      tag_30\n      jump\t// in\n    tag_29:\n        /* \"#utility.yul\":576:650   */\n      swap2\n      pop\n        /* \"#utility.yul\":659:752   */\n      tag_31\n        /* \"#utility.yul\":748:751   */\n      dup3\n        /* \"#utility.yul\":659:752   */\n      tag_32\n      jump\t// in\n    tag_31:\n        /* \"#utility.yul\":777:779   */\n      0x40\n        /* \"#utility.yul\":772:775   */\n      dup3\n        /* \"#utility.yul\":768:780   */\n      add\n        /* \"#utility.yul\":761:780   */\n      swap1\n      pop\n        /* \"#utility.yul\":566:786   */\n      swap2\n      swap1\n      pop\n      jump\t// out\n        /* \"#utility.yul\":792:910   */\n    tag_33:\n        /* \"#utility.yul\":879:903   */\n      tag_35\n        /* \"#utility.yul\":897:902   */\n      dup2\n        /* \"#utility.yul\":879:903   */\n      tag_36\n      jump\t// in\n    tag_35:\n        /* \"#utility.yul\":874:877   */\n      dup3\n        /* \"#utility.yul\":867:904   */\n      mstore\n        /* \"#utility.yul\":857:910   */\n      pop\n      pop\n      jump\t// out\n        /* \"#utility.yul\":916:1335   */\n    tag_18:\n      0x00\n        /* \"#utility.yul\":1120:1122   */\n      0x20\n        /* \"#utility.yul\":1109:1118   */\n      dup3\n        /* \"#utility.yul\":1105:1123   */\n      add\n        /* \"#utility.yul\":1097:1123   */\n      swap1\n      pop\n        /* \"#utility.yul\":1169:1178   */\n      dup2\n        /* \"#utility.yul\":1163:1167   */\n      dup2\n        /* \"#utility.yul\":1159:1179   */\n      sub\n        /* \"#utility.yul\":1155:1156   */\n      0x00\n        /* \"#utility.yul\":1144:1153   */\n      dup4\n        /* \"#utility.yul\":1140:1157   */\n      add\n        /* \"#utility.yul\":1133:1180   */\n      mstore\n        /* \"#utility.yul\":1197:1328   */\n      tag_38\n        /* \"#utility.yul\":1323:1327   */\n      dup2\n        /* \"#utility.yul\":1197:1328   */\n      tag_27\n      jump\t// in\n    tag_38:\n        /* \"#utility.yul\":1189:1328   */\n      swap1\n      pop\n        /* \"#utility.yul\":1087:1335   */\n      swap2\n      swap1\n      pop\n      jump\t// out\n        /* \"#utility.yul\":1341:1563   */\n    tag_8:\n      0x00\n        /* \"#utility.yul\":1472:1474   */\n      0x20\n        /* \"#utility.yul\":1461:1470   */\n      dup3\n        /* \"#utility.yul\":1457:1475   */\n      add\n        /* \"#utility.yul\":1449:1475   */\n      swap1\n      pop\n        /* \"#utility.yul\":1485:1556   */\n      tag_40\n        /* \"#utility.yul\":1553:1554   */\n      0x00\n        /* \"#utility.yul\":1542:1551   */\n      dup4\n        /* \"#utility.yul\":1538:1555   */\n      add\n        /* \"#utility.yul\":1529:1535   */\n      dup5\n        /* \"#utility.yul\":1485:1556   */\n      tag_33\n      jump\t// in\n    tag_40:\n        /* \"#utility.yul\":1439:1563   */\n      swap3\n      swap2\n      pop\n      pop\n      jump\t// out\n        /* \"#utility.yul\":1569:1738   */\n    tag_30:\n      0x00\n        /* \"#utility.yul\":1687:1693   */\n      dup3\n        /* \"#utility.yul\":1682:1685   */\n      dup3\n        /* \"#utility.yul\":1675:1694   */\n      mstore\n        /* \"#utility.yul\":1727:1731   */\n      0x20\n        /* \"#utility.yul\":1722:1725   */\n      dup3\n        /* \"#utility.yul\":1718:1732   */\n      add\n        /* \"#utility.yul\":1703:1732   */\n      swap1\n      pop\n        /* \"#utility.yul\":1665:1738   */\n      swap3\n      swap2\n      pop\n      pop\n      jump\t// out\n        /* \"#utility.yul\":1744:1840   */\n    tag_42:\n      0x00\n        /* \"#utility.yul\":1810:1834   */\n      tag_44\n        /* \"#utility.yul\":1828:1833   */\n      dup3\n        /* \"#utility.yul\":1810:1834   */\n      tag_45\n      jump\t// in\n    tag_44:\n        /* \"#utility.yul\":1799:1834   */\n      swap1\n      pop\n        /* \"#utility.yul\":1789:1840   */\n      swap2\n      swap1\n      pop\n      jump\t// out\n        /* \"#utility.yul\":1846:1972   */\n    tag_45:\n      0x00\n        /* \"#utility.yul\":1923:1965   */\n      0xffffffffffffffffffffffffffffffffffffffff\n        /* \"#utility.yul\":1916:1921   */\n      dup3\n        /* \"#utility.yul\":1912:1966   */\n      and\n        /* \"#utility.yul\":1901:1966   */\n      swap1\n      pop\n        /* \"#utility.yul\":1891:1972   */\n      swap2\n      swap1\n      pop\n      jump\t// out\n        /* \"#utility.yul\":1978:2055   */\n    tag_36:\n      0x00\n        /* \"#utility.yul\":2044:2049   */\n      dup2\n        /* \"#utility.yul\":2033:2049   */\n      swap1\n      pop\n        /* \"#utility.yul\":2023:2055   */\n      swap2\n      swap1\n      pop\n      jump\t// out\n        /* \"#utility.yul\":2061:2291   */\n    tag_32:\n        /* \"#utility.yul\":2201:2235   */\n      0x41617665676f7463686946616365743a205f6f776e65722063616e2774206265\n        /* \"#utility.yul\":2197:2198   */\n      0x00\n        /* \"#utility.yul\":2189:2195   */\n      dup3\n        /* \"#utility.yul\":2185:2199   */\n      add\n        /* \"#utility.yul\":2178:2236   */\n      mstore\n        /* \"#utility.yul\":2270:2283   */\n      0x2061646472657373283029000000000000000000000000000000000000000000\n        /* \"#utility.yul\":2265:2267   */\n      0x20\n        /* \"#utility.yul\":2257:2263   */\n      dup3\n        /* \"#utility.yul\":2253:2268   */\n      add\n        /* \"#utility.yul\":2246:2284   */\n      mstore\n        /* \"#utility.yul\":2167:2291   */\n      pop\n      jump\t// out\n        /* \"#utility.yul\":2297:2419   */\n    tag_23:\n        /* \"#utility.yul\":2370:2394   */\n      tag_50\n        /* \"#utility.yul\":2388:2393   */\n      dup2\n        /* \"#utility.yul\":2370:2394   */\n      tag_42\n      jump\t// in\n    tag_50:\n        /* \"#utility.yul\":2363:2368   */\n      dup2\n        /* \"#utility.yul\":2360:2395   */\n      eq\n        /* \"#utility.yul\":2350:2352   */\n      tag_51\n      jumpi\n        /* \"#utility.yul\":2409:2410   */\n      0x00\n        /* \"#utility.yul\":2406:2407   */\n      dup1\n        /* \"#utility.yul\":2399:2411   */\n      revert\n        /* \"#utility.yul\":2350:2352   */\n    tag_51:\n        /* \"#utility.yul\":2340:2419   */\n      pop\n      jump\t// out\n\n    auxdata: 0xa2646970667358221220084eaea4c79371ac7da5f1ae8b84c34cbd6df8b949c0cdb98b1b8ef0f4f00e6264736f6c63430008010033\n}\n",
				"bytecode": {
					"linkReferences": {},
					"object": "608060405234801561001057600080fd5b506102ea806100206000396000f3fe608060405234801561001057600080fd5b50600436106100365760003560e01c806318160ddd1461003b57806370a0823114610059575b600080fd5b610043610089565b60405161005091906101e6565b60405180910390f35b610073600480360381019061006e919061016b565b610098565b60405161008091906101e6565b60405180910390f35b60008060100180549050905090565b60008073ffffffffffffffffffffffffffffffffffffffff168273ffffffffffffffffffffffffffffffffffffffff161415610109576040517f08c379a0000000000000000000000000000000000000000000000000000000008152600401610100906101c6565b60405180910390fd5b6000600e0160008373ffffffffffffffffffffffffffffffffffffffff1673ffffffffffffffffffffffffffffffffffffffff168152602001908152602001600020805490509050919050565b6000813590506101658161029d565b92915050565b60006020828403121561017d57600080fd5b600061018b84828501610156565b91505092915050565b60006101a1602b83610201565b91506101ac8261024e565b604082019050919050565b6101c081610244565b82525050565b600060208201905081810360008301526101df81610194565b9050919050565b60006020820190506101fb60008301846101b7565b92915050565b600082825260208201905092915050565b600061021d82610224565b9050919050565b600073ffffffffffffffffffffffffffffffffffffffff82169050919050565b6000819050919050565b7f41617665676f7463686946616365743a205f6f776e65722063616e277420626560008201527f2061646472657373283029000000000000000000000000000000000000000000602082015250565b6102a681610212565b81146102b157600080fd5b5056fea2646970667358221220084eaea4c79371ac7da5f1ae8b84c34cbd6df8b949c0cdb98b1b8ef0f4f00e6264736f6c63430008010033",
					"opcodes": "PUSH1 0x80 PUSH1 0x40 MSTORE CALLVALUE DUP1 ISZERO PUSH2 0x10 JUMPI PUSH1 0x0 DUP1 REVERT JUMPDEST POP PUSH2 0x2EA DUP1 PUSH2 0x20 PUSH1 0x0 CODECOPY PUSH1 0x0 RETURN INVALID PUSH1 0x80 PUSH1 0x40 MSTORE CALLVALUE DUP1 ISZERO PUSH2 0x10 JUMPI PUSH1 0x0 DUP1 REVERT JUMPDEST POP PUSH1 0x4 CALLDATASIZE LT PUSH2 0x36 JUMPI PUSH1 0x0 CALLDATALOAD PUSH1 0xE0 SHR DUP1 PUSH4 0x18160DDD EQ PUSH2 0x3B JUMPI DUP1 PUSH4 0x70A08231 EQ PUSH2 0x59 JUMPI JUMPDEST PUSH1 0x0 DUP1 REVERT JUMPDEST PUSH2 0x43 PUSH2 0x89 JUMP JUMPDEST PUSH1 0x40 MLOAD PUSH2 0x50 SWAP2 SWAP1 PUSH2 0x1E6 JUMP JUMPDEST PUSH1 0x40 MLOAD DUP1 SWAP2 SUB SWAP1 RETURN JUMPDEST PUSH2 0x73 PUSH1 0x4 DUP1 CALLDATASIZE SUB DUP2 ADD SWAP1 PUSH2 0x6E SWAP2 SWAP1 PUSH2 0x16B JUMP JUMPDEST PUSH2 0x98 JUMP JUMPDEST PUSH1 0x40 MLOAD PUSH2 0x80 SWAP2 SWAP1 PUSH2 0x1E6 JUMP JUMPDEST PUSH1 0x40 MLOAD DUP1 SWAP2 SUB SWAP1 RETURN JUMPDEST PUSH1 0x0 DUP1 PUSH1 0x10 ADD DUP1 SLOAD SWAP1 POP SWAP1 POP SWAP1 JUMP JUMPDEST PUSH1 0x0 DUP1 PUSH20 0xFFFFFFFFFFFFFFFFFFFFFFFFFFFFFFFFFFFFFFFF AND DUP3 PUSH20 0xFFFFFFFFFFFFFFFFFFFFFFFFFFFFFFFFFFFFFFFF AND EQ ISZERO PUSH2 0x109 JUMPI PUSH1 0x40 MLOAD PUSH32 0x8C379A000000000000000000000000000000000000000000000000000000000 DUP2 MSTORE PUSH1 0x4 ADD PUSH2 0x100 SWAP1 PUSH2 0x1C6 JUMP JUMPDEST PUSH1 0x40 MLOAD DUP1 SWAP2 SUB SWAP1 REVERT JUMPDEST PUSH1 0x0 PUSH1 0xE ADD PUSH1 0x0 DUP4 PUSH20 0xFFFFFFFFFFFFFFFFFFFFFFFFFFFFFFFFFFFFFFFF AND PUSH20 0xFFFFFFFFFFFFFFFFFFFFFFFFFFFFFFFFFFFFFFFF AND DUP2 MSTORE PUSH1 0x20 ADD SWAP1 DUP2 MSTORE PUSH1 0x20 ADD PUSH1 0x0 KECCAK256 DUP1 SLOAD SWAP1 POP SWAP1 POP SWAP2 SWAP1 POP JUMP JUMPDEST PUSH1 0x0 DUP2 CALLDATALOAD SWAP1 POP PUSH2 0x165 DUP2 PUSH2 0x29D JUMP JUMPDEST SWAP3 SWAP2 POP POP JUMP JUMPDEST PUSH1 0x0 PUSH1 0x20 DUP3 DUP5 SUB SLT ISZERO PUSH2 0x17D JUMPI PUSH1 0x0 DUP1 REVERT JUMPDEST PUSH1 0x0 PUSH2 0x18B DUP5 DUP3 DUP6 ADD PUSH2 0x156 JUMP JUMPDEST SWAP2 POP POP SWAP3 SWAP2 POP POP JUMP JUMPDEST PUSH1 0x0 PUSH2 0x1A1 PUSH1 0x2B DUP4 PUSH2 0x201 JUMP JUMPDEST SWAP2 POP PUSH2 0x1AC DUP3 PUSH2 0x24E JUMP JUMPDEST PUSH1 0x40 DUP3 ADD SWAP1 POP SWAP2 SWAP1 POP JUMP JUMPDEST PUSH2 0x1C0 DUP2 PUSH2 0x244 JUMP JUMPDEST DUP3 MSTORE POP POP JUMP JUMPDEST PUSH1 0x0 PUSH1 0x20 DUP3 ADD SWAP1 POP DUP2 DUP2 SUB PUSH1 0x0 DUP4 ADD MSTORE PUSH2 0x1DF DUP2 PUSH2 0x194 JUMP JUMPDEST SWAP1 POP SWAP2 SWAP1 POP JUMP JUMPDEST PUSH1 0x0 PUSH1 0x20 DUP3 ADD SWAP1 POP PUSH2 0x1FB PUSH1 0x0 DUP4 ADD DUP5 PUSH2 0x1B7 JUMP JUMPDEST SWAP3 SWAP2 POP POP JUMP JUMPDEST PUSH1 0x0 DUP3 DUP3 MSTORE PUSH1 0x20 DUP3 ADD SWAP1 POP SWAP3 SWAP2 POP POP JUMP JUMPDEST PUSH1 0x0 PUSH2 0x21D DUP3 PUSH2 0x224 JUMP JUMPDEST SWAP1 POP SWAP2 SWAP1 POP JUMP JUMPDEST PUSH1 0x0 PUSH20 0xFFFFFFFFFFFFFFFFFFFFFFFFFFFFFFFFFFFFFFFF DUP3 AND SWAP1 POP SWAP2 SWAP1 POP JUMP JUMPDEST PUSH1 0x0 DUP2 SWAP1 POP SWAP2 SWAP1 POP JUMP JUMPDEST PUSH32 0x41617665676F7463686946616365743A205F6F776E65722063616E2774206265 PUSH1 0x0 DUP3 ADD MSTORE PUSH32 0x2061646472657373283029000000000000000000000000000000000000000000 PUSH1 0x20 DUP3 ADD MSTORE POP JUMP JUMPDEST PUSH2 0x2A6 DUP2 PUSH2 0x212 JUMP JUMPDEST DUP2 EQ PUSH2 0x2B1 JUMPI PUSH1 0x0 DUP1 REVERT JUMPDEST POP JUMP INVALID LOG2 PUSH5 0x6970667358 0x22 SLT KECCAK256 ADDMOD 0x4E 0xAE LOG4 0xC7 SWAP4 PUSH18 0xAC7DA5F1AE8B84C34CBD6DF8B949C0CDB98B SHL DUP15 CREATE DELEGATECALL CREATE 0xE PUSH3 0x64736F PUSH13 0x63430008010033000000000000 "
				},
				"gasEstimates": {
					"creation": {
						"codeDepositCost": "149200",
						"executionCost": "196",
						"totalCost": "149396"
					},
					"external": {
						"balanceOf(address)": "1593",
						"totalSupply()": "1129"
					}
				},
				"methodIdentifiers": {
					"balanceOf(address)": "70a08231",
					"totalSupply()": "18160ddd"
				}
			},
			"storageLayout": {
				"storage": [
					{
						"astId": 619,
						"contract": "Tmons/facets/TMonFacet.sol:TMonFacet",
						"label": "s",
						"offset": 0,
						"slot": "0",
						"type": "t_struct(AppStorage)1331_storage"
					}
				],
				"types": {
					"t_address": {
						"encoding": "inplace",
						"label": "address",
						"numberOfBytes": "20"
					},
					"t_array(t_address)dyn_storage": {
						"base": "t_address",
						"encoding": "dynamic_array",
						"label": "address[]",
						"numberOfBytes": "32"
					},
					"t_array(t_bool)16_storage": {
						"base": "t_bool",
						"encoding": "inplace",
						"label": "bool[16]",
						"numberOfBytes": "32"
					},
					"t_array(t_bytes32)dyn_storage": {
						"base": "t_bytes32",
						"encoding": "dynamic_array",
						"label": "bytes32[]",
						"numberOfBytes": "32"
					},
					"t_array(t_int16)6_storage": {
						"base": "t_int16",
						"encoding": "inplace",
						"label": "int16[6]",
						"numberOfBytes": "32"
					},
					"t_array(t_int8)5_storage": {
						"base": "t_int8",
						"encoding": "inplace",
						"label": "int8[5]",
						"numberOfBytes": "32"
					},
					"t_array(t_int8)6_storage": {
						"base": "t_int8",
						"encoding": "inplace",
						"label": "int8[6]",
						"numberOfBytes": "32"
					},
					"t_array(t_struct(ItemType)783_storage)dyn_storage": {
						"base": "t_struct(ItemType)783_storage",
						"encoding": "dynamic_array",
						"label": "struct ItemType[]",
						"numberOfBytes": "32"
					},
					"t_array(t_struct(SvgLayer)812_storage)dyn_storage": {
						"base": "t_struct(SvgLayer)812_storage",
						"encoding": "dynamic_array",
						"label": "struct SvgLayer[]",
						"numberOfBytes": "32"
					},
					"t_array(t_struct(WearableSet)796_storage)dyn_storage": {
						"base": "t_struct(WearableSet)796_storage",
						"encoding": "dynamic_array",
						"label": "struct WearableSet[]",
						"numberOfBytes": "32"
					},
					"t_array(t_struct(Whitelist)952_storage)dyn_storage": {
						"base": "t_struct(Whitelist)952_storage",
						"encoding": "dynamic_array",
						"label": "struct Whitelist[]",
						"numberOfBytes": "32"
					},
					"t_array(t_uint16)16_storage": {
						"base": "t_uint16",
						"encoding": "inplace",
						"label": "uint16[16]",
						"numberOfBytes": "32"
					},
					"t_array(t_uint16)2_storage": {
						"base": "t_uint16",
						"encoding": "inplace",
						"label": "uint16[2]",
						"numberOfBytes": "32"
					},
					"t_array(t_uint16)dyn_storage": {
						"base": "t_uint16",
						"encoding": "dynamic_array",
						"label": "uint16[]",
						"numberOfBytes": "32"
					},
					"t_array(t_uint256)dyn_storage": {
						"base": "t_uint256",
						"encoding": "dynamic_array",
						"label": "uint256[]",
						"numberOfBytes": "32"
					},
					"t_array(t_uint32)dyn_storage": {
						"base": "t_uint32",
						"encoding": "dynamic_array",
						"label": "uint32[]",
						"numberOfBytes": "32"
					},
					"t_array(t_uint8)3_storage": {
						"base": "t_uint8",
						"encoding": "inplace",
						"label": "uint8[3]",
						"numberOfBytes": "32"
					},
					"t_array(t_uint8)dyn_storage": {
						"base": "t_uint8",
						"encoding": "dynamic_array",
						"label": "uint8[]",
						"numberOfBytes": "32"
					},
					"t_bool": {
						"encoding": "inplace",
						"label": "bool",
						"numberOfBytes": "1"
					},
					"t_bytes3": {
						"encoding": "inplace",
						"label": "bytes3",
						"numberOfBytes": "3"
					},
					"t_bytes32": {
						"encoding": "inplace",
						"label": "bytes32",
						"numberOfBytes": "32"
					},
					"t_bytes_memory_ptr": {
						"encoding": "bytes",
						"label": "bytes",
						"numberOfBytes": "32"
					},
					"t_int16": {
						"encoding": "inplace",
						"label": "int16",
						"numberOfBytes": "2"
					},
					"t_int8": {
						"encoding": "inplace",
						"label": "int8",
						"numberOfBytes": "1"
					},
					"t_mapping(t_address,t_array(t_uint256)dyn_storage)": {
						"encoding": "mapping",
						"key": "t_address",
						"label": "mapping(address => uint256[])",
						"numberOfBytes": "32",
						"value": "t_array(t_uint256)dyn_storage"
					},
					"t_mapping(t_address,t_array(t_uint32)dyn_storage)": {
						"encoding": "mapping",
						"key": "t_address",
						"label": "mapping(address => uint32[])",
						"numberOfBytes": "32",
						"value": "t_array(t_uint32)dyn_storage"
					},
					"t_mapping(t_address,t_bool)": {
						"encoding": "mapping",
						"key": "t_address",
						"label": "mapping(address => bool)",
						"numberOfBytes": "32",
						"value": "t_bool"
					},
					"t_mapping(t_address,t_mapping(t_address,t_bool))": {
						"encoding": "mapping",
						"key": "t_address",
						"label": "mapping(address => mapping(address => bool))",
						"numberOfBytes": "32",
						"value": "t_mapping(t_address,t_bool)"
					},
					"t_mapping(t_address,t_mapping(t_address,t_mapping(t_uint32,t_bool)))": {
						"encoding": "mapping",
						"key": "t_address",
						"label": "mapping(address => mapping(address => mapping(uint32 => bool)))",
						"numberOfBytes": "32",
						"value": "t_mapping(t_address,t_mapping(t_uint32,t_bool))"
					},
					"t_mapping(t_address,t_mapping(t_bytes32,t_uint32))": {
						"encoding": "mapping",
						"key": "t_address",
						"label": "mapping(address => mapping(bytes32 => uint32))",
						"numberOfBytes": "32",
						"value": "t_mapping(t_bytes32,t_uint32)"
					},
					"t_mapping(t_address,t_mapping(t_uint256,t_array(t_uint256)dyn_storage))": {
						"encoding": "mapping",
						"key": "t_address",
						"label": "mapping(address => mapping(uint256 => uint256[]))",
						"numberOfBytes": "32",
						"value": "t_mapping(t_uint256,t_array(t_uint256)dyn_storage)"
					},
					"t_mapping(t_address,t_mapping(t_uint256,t_mapping(t_address,t_uint256)))": {
						"encoding": "mapping",
						"key": "t_address",
						"label": "mapping(address => mapping(uint256 => mapping(address => uint256)))",
						"numberOfBytes": "32",
						"value": "t_mapping(t_uint256,t_mapping(t_address,t_uint256))"
					},
					"t_mapping(t_address,t_mapping(t_uint256,t_mapping(t_string_memory_ptr,t_uint256)))": {
						"encoding": "mapping",
						"key": "t_address",
						"label": "mapping(address => mapping(uint256 => mapping(string => uint256)))",
						"numberOfBytes": "32",
						"value": "t_mapping(t_uint256,t_mapping(t_string_memory_ptr,t_uint256))"
					},
					"t_mapping(t_address,t_mapping(t_uint256,t_mapping(t_uint256,t_uint256)))": {
						"encoding": "mapping",
						"key": "t_address",
						"label": "mapping(address => mapping(uint256 => mapping(uint256 => uint256)))",
						"numberOfBytes": "32",
						"value": "t_mapping(t_uint256,t_mapping(t_uint256,t_uint256))"
					},
					"t_mapping(t_address,t_mapping(t_uint256,t_uint256))": {
						"encoding": "mapping",
						"key": "t_address",
						"label": "mapping(address => mapping(uint256 => uint256))",
						"numberOfBytes": "32",
						"value": "t_mapping(t_uint256,t_uint256)"
					},
					"t_mapping(t_address,t_mapping(t_uint32,t_bool))": {
						"encoding": "mapping",
						"key": "t_address",
						"label": "mapping(address => mapping(uint32 => bool))",
						"numberOfBytes": "32",
						"value": "t_mapping(t_uint32,t_bool)"
					},
					"t_mapping(t_address,t_mapping(t_uint32,t_uint32))": {
						"encoding": "mapping",
						"key": "t_address",
						"label": "mapping(address => mapping(uint32 => uint32))",
						"numberOfBytes": "32",
						"value": "t_mapping(t_uint32,t_uint32)"
					},
					"t_mapping(t_address,t_struct(GameManager)901_storage)": {
						"encoding": "mapping",
						"key": "t_address",
						"label": "mapping(address => struct GameManager)",
						"numberOfBytes": "32",
						"value": "t_struct(GameManager)901_storage"
					},
					"t_mapping(t_address,t_struct(TMonCollateralTypeInfo)831_storage)": {
						"encoding": "mapping",
						"key": "t_address",
						"label": "mapping(address => struct TMonCollateralTypeInfo)",
						"numberOfBytes": "32",
						"value": "t_struct(TMonCollateralTypeInfo)831_storage"
					},
					"t_mapping(t_address,t_struct(UintSet)482_storage)": {
						"encoding": "mapping",
						"key": "t_address",
						"label": "mapping(address => struct EnumerableSet.UintSet)",
						"numberOfBytes": "32",
						"value": "t_struct(UintSet)482_storage"
					},
					"t_mapping(t_address,t_uint256)": {
						"encoding": "mapping",
						"key": "t_address",
						"label": "mapping(address => uint256)",
						"numberOfBytes": "32",
						"value": "t_uint256"
					},
					"t_mapping(t_bytes32,t_array(t_struct(SvgLayer)812_storage)dyn_storage)": {
						"encoding": "mapping",
						"key": "t_bytes32",
						"label": "mapping(bytes32 => struct SvgLayer[])",
						"numberOfBytes": "32",
						"value": "t_array(t_struct(SvgLayer)812_storage)dyn_storage"
					},
					"t_mapping(t_bytes32,t_mapping(t_uint256,t_mapping(t_uint256,t_bool)))": {
						"encoding": "mapping",
						"key": "t_bytes32",
						"label": "mapping(bytes32 => mapping(uint256 => mapping(uint256 => bool)))",
						"numberOfBytes": "32",
						"value": "t_mapping(t_uint256,t_mapping(t_uint256,t_bool))"
					},
					"t_mapping(t_bytes32,t_mapping(t_uint32,t_struct(LendingListItem)944_storage))": {
						"encoding": "mapping",
						"key": "t_bytes32",
						"label": "mapping(bytes32 => mapping(uint32 => struct LendingListItem))",
						"numberOfBytes": "32",
						"value": "t_mapping(t_uint32,t_struct(LendingListItem)944_storage)"
					},
					"t_mapping(t_bytes32,t_uint256)": {
						"encoding": "mapping",
						"key": "t_bytes32",
						"label": "mapping(bytes32 => uint256)",
						"numberOfBytes": "32",
						"value": "t_uint256"
					},
					"t_mapping(t_bytes32,t_uint32)": {
						"encoding": "mapping",
						"key": "t_bytes32",
						"label": "mapping(bytes32 => uint32)",
						"numberOfBytes": "32",
						"value": "t_uint32"
					},
					"t_mapping(t_bytes_memory_ptr,t_struct(Dimensions)740_storage)": {
						"encoding": "mapping",
						"key": "t_bytes_memory_ptr",
						"label": "mapping(bytes => struct Dimensions)",
						"numberOfBytes": "32",
						"value": "t_struct(Dimensions)740_storage"
					},
					"t_mapping(t_string_memory_ptr,t_bool)": {
						"encoding": "mapping",
						"key": "t_string_memory_ptr",
						"label": "mapping(string => bool)",
						"numberOfBytes": "32",
						"value": "t_bool"
					},
					"t_mapping(t_string_memory_ptr,t_mapping(t_uint256,t_struct(ListingListItem)894_storage))": {
						"encoding": "mapping",
						"key": "t_string_memory_ptr",
						"label": "mapping(string => mapping(uint256 => struct ListingListItem))",
						"numberOfBytes": "32",
						"value": "t_mapping(t_uint256,t_struct(ListingListItem)894_storage)"
					},
					"t_mapping(t_string_memory_ptr,t_uint256)": {
						"encoding": "mapping",
						"key": "t_string_memory_ptr",
						"label": "mapping(string => uint256)",
						"numberOfBytes": "32",
						"value": "t_uint256"
					},
					"t_mapping(t_uint256,t_address)": {
						"encoding": "mapping",
						"key": "t_uint256",
						"label": "mapping(uint256 => address)",
						"numberOfBytes": "32",
						"value": "t_address"
					},
					"t_mapping(t_uint256,t_array(t_address)dyn_storage)": {
						"encoding": "mapping",
						"key": "t_uint256",
						"label": "mapping(uint256 => address[])",
						"numberOfBytes": "32",
						"value": "t_array(t_address)dyn_storage"
					},
					"t_mapping(t_uint256,t_array(t_uint256)dyn_storage)": {
						"encoding": "mapping",
						"key": "t_uint256",
						"label": "mapping(uint256 => uint256[])",
						"numberOfBytes": "32",
						"value": "t_array(t_uint256)dyn_storage"
					},
					"t_mapping(t_uint256,t_bool)": {
						"encoding": "mapping",
						"key": "t_uint256",
						"label": "mapping(uint256 => bool)",
						"numberOfBytes": "32",
						"value": "t_bool"
					},
					"t_mapping(t_uint256,t_mapping(t_address,t_uint256))": {
						"encoding": "mapping",
						"key": "t_uint256",
						"label": "mapping(uint256 => mapping(address => uint256))",
						"numberOfBytes": "32",
						"value": "t_mapping(t_address,t_uint256)"
					},
					"t_mapping(t_uint256,t_mapping(t_bytes_memory_ptr,t_struct(Dimensions)740_storage))": {
						"encoding": "mapping",
						"key": "t_uint256",
						"label": "mapping(uint256 => mapping(bytes => struct Dimensions))",
						"numberOfBytes": "32",
						"value": "t_mapping(t_bytes_memory_ptr,t_struct(Dimensions)740_storage)"
					},
					"t_mapping(t_uint256,t_mapping(t_string_memory_ptr,t_uint256))": {
						"encoding": "mapping",
						"key": "t_uint256",
						"label": "mapping(uint256 => mapping(string => uint256))",
						"numberOfBytes": "32",
						"value": "t_mapping(t_string_memory_ptr,t_uint256)"
					},
					"t_mapping(t_uint256,t_mapping(t_uint256,t_bool))": {
						"encoding": "mapping",
						"key": "t_uint256",
						"label": "mapping(uint256 => mapping(uint256 => bool))",
						"numberOfBytes": "32",
						"value": "t_mapping(t_uint256,t_bool)"
					},
					"t_mapping(t_uint256,t_mapping(t_uint256,t_uint256))": {
						"encoding": "mapping",
						"key": "t_uint256",
						"label": "mapping(uint256 => mapping(uint256 => uint256))",
						"numberOfBytes": "32",
						"value": "t_mapping(t_uint256,t_uint256)"
					},
					"t_mapping(t_uint256,t_struct(ERC1155Listing)862_storage)": {
						"encoding": "mapping",
						"key": "t_uint256",
						"label": "mapping(uint256 => struct ERC1155Listing)",
						"numberOfBytes": "32",
						"value": "t_struct(ERC1155Listing)862_storage"
					},
					"t_mapping(t_uint256,t_struct(ERC721Listing)887_storage)": {
						"encoding": "mapping",
						"key": "t_uint256",
						"label": "mapping(uint256 => struct ERC721Listing)",
						"numberOfBytes": "32",
						"value": "t_struct(ERC721Listing)887_storage"
					},
					"t_mapping(t_uint256,t_struct(Haunt)805_storage)": {
						"encoding": "mapping",
						"key": "t_uint256",
						"label": "mapping(uint256 => struct Haunt)",
						"numberOfBytes": "32",
						"value": "t_struct(Haunt)805_storage"
					},
					"t_mapping(t_uint256,t_struct(ListingListItem)894_storage)": {
						"encoding": "mapping",
						"key": "t_uint256",
						"label": "mapping(uint256 => struct ListingListItem)",
						"numberOfBytes": "32",
						"value": "t_struct(ListingListItem)894_storage"
					},
					"t_mapping(t_uint256,t_struct(TMon)731_storage)": {
						"encoding": "mapping",
						"key": "t_uint256",
						"label": "mapping(uint256 => struct TMon)",
						"numberOfBytes": "32",
						"value": "t_struct(TMon)731_storage"
					},
					"t_mapping(t_uint256,t_uint256)": {
						"encoding": "mapping",
						"key": "t_uint256",
						"label": "mapping(uint256 => uint256)",
						"numberOfBytes": "32",
						"value": "t_uint256"
					},
					"t_mapping(t_uint32,t_bool)": {
						"encoding": "mapping",
						"key": "t_uint32",
						"label": "mapping(uint32 => bool)",
						"numberOfBytes": "32",
						"value": "t_bool"
					},
					"t_mapping(t_uint32,t_mapping(t_address,t_struct(UintSet)482_storage))": {
						"encoding": "mapping",
						"key": "t_uint32",
						"label": "mapping(uint32 => mapping(address => struct EnumerableSet.UintSet))",
						"numberOfBytes": "32",
						"value": "t_mapping(t_address,t_struct(UintSet)482_storage)"
					},
					"t_mapping(t_uint32,t_mapping(t_address,t_uint256))": {
						"encoding": "mapping",
						"key": "t_uint32",
						"label": "mapping(uint32 => mapping(address => uint256))",
						"numberOfBytes": "32",
						"value": "t_mapping(t_address,t_uint256)"
					},
					"t_mapping(t_uint32,t_mapping(t_uint256,t_uint256))": {
						"encoding": "mapping",
						"key": "t_uint32",
						"label": "mapping(uint32 => mapping(uint256 => uint256))",
						"numberOfBytes": "32",
						"value": "t_mapping(t_uint256,t_uint256)"
					},
					"t_mapping(t_uint32,t_struct(GotchiLending)937_storage)": {
						"encoding": "mapping",
						"key": "t_uint32",
						"label": "mapping(uint32 => struct GotchiLending)",
						"numberOfBytes": "32",
						"value": "t_struct(GotchiLending)937_storage"
					},
					"t_mapping(t_uint32,t_struct(LendingListItem)944_storage)": {
						"encoding": "mapping",
						"key": "t_uint32",
						"label": "mapping(uint32 => struct LendingListItem)",
						"numberOfBytes": "32",
						"value": "t_struct(LendingListItem)944_storage"
					},
					"t_mapping(t_uint32,t_uint32)": {
						"encoding": "mapping",
						"key": "t_uint32",
						"label": "mapping(uint32 => uint32)",
						"numberOfBytes": "32",
						"value": "t_uint32"
					},
					"t_string_memory_ptr": {
						"encoding": "bytes",
						"label": "string",
						"numberOfBytes": "32"
					},
					"t_string_storage": {
						"encoding": "bytes",
						"label": "string",
						"numberOfBytes": "32"
					},
					"t_struct(AppStorage)1331_storage": {
						"encoding": "inplace",
						"label": "struct AppStorage",
						"members": [
							{
								"astId": 957,
								"contract": "Tmons/facets/TMonFacet.sol:TMonFacet",
								"label": "collateralTypeInfo",
								"offset": 0,
								"slot": "0",
								"type": "t_mapping(t_address,t_struct(TMonCollateralTypeInfo)831_storage)"
							},
							{
								"astId": 961,
								"contract": "Tmons/facets/TMonFacet.sol:TMonFacet",
								"label": "collateralTypeIndexes",
								"offset": 0,
								"slot": "1",
								"type": "t_mapping(t_address,t_uint256)"
							},
							{
								"astId": 967,
								"contract": "Tmons/facets/TMonFacet.sol:TMonFacet",
								"label": "svgLayers",
								"offset": 0,
								"slot": "2",
								"type": "t_mapping(t_bytes32,t_array(t_struct(SvgLayer)812_storage)dyn_storage)"
							},
							{
								"astId": 975,
								"contract": "Tmons/facets/TMonFacet.sol:TMonFacet",
								"label": "nftItemBalances",
								"offset": 0,
								"slot": "3",
								"type": "t_mapping(t_address,t_mapping(t_uint256,t_mapping(t_uint256,t_uint256)))"
							},
							{
								"astId": 982,
								"contract": "Tmons/facets/TMonFacet.sol:TMonFacet",
								"label": "nftItems",
								"offset": 0,
								"slot": "4",
								"type": "t_mapping(t_address,t_mapping(t_uint256,t_array(t_uint256)dyn_storage))"
							},
							{
								"astId": 990,
								"contract": "Tmons/facets/TMonFacet.sol:TMonFacet",
								"label": "nftItemIndexes",
								"offset": 0,
								"slot": "5",
								"type": "t_mapping(t_address,t_mapping(t_uint256,t_mapping(t_uint256,t_uint256)))"
							},
							{
								"astId": 994,
								"contract": "Tmons/facets/TMonFacet.sol:TMonFacet",
								"label": "itemTypes",
								"offset": 0,
								"slot": "6",
								"type": "t_array(t_struct(ItemType)783_storage)dyn_storage"
							},
							{
								"astId": 998,
								"contract": "Tmons/facets/TMonFacet.sol:TMonFacet",
								"label": "wearableSets",
								"offset": 0,
								"slot": "7",
								"type": "t_array(t_struct(WearableSet)796_storage)dyn_storage"
							},
							{
								"astId": 1003,
								"contract": "Tmons/facets/TMonFacet.sol:TMonFacet",
								"label": "haunts",
								"offset": 0,
								"slot": "8",
								"type": "t_mapping(t_uint256,t_struct(Haunt)805_storage)"
							},
							{
								"astId": 1009,
								"contract": "Tmons/facets/TMonFacet.sol:TMonFacet",
								"label": "ownerItemBalances",
								"offset": 0,
								"slot": "9",
								"type": "t_mapping(t_address,t_mapping(t_uint256,t_uint256))"
							},
							{
								"astId": 1014,
								"contract": "Tmons/facets/TMonFacet.sol:TMonFacet",
								"label": "ownerItems",
								"offset": 0,
								"slot": "10",
								"type": "t_mapping(t_address,t_array(t_uint256)dyn_storage)"
							},
							{
								"astId": 1020,
								"contract": "Tmons/facets/TMonFacet.sol:TMonFacet",
								"label": "ownerItemIndexes",
								"offset": 0,
								"slot": "11",
								"type": "t_mapping(t_address,t_mapping(t_uint256,t_uint256))"
							},
							{
								"astId": 1024,
								"contract": "Tmons/facets/TMonFacet.sol:TMonFacet",
								"label": "tokenIdToRandomNumber",
								"offset": 0,
								"slot": "12",
								"type": "t_mapping(t_uint256,t_uint256)"
							},
							{
								"astId": 1029,
								"contract": "Tmons/facets/TMonFacet.sol:TMonFacet",
								"label": "tmons",
								"offset": 0,
								"slot": "13",
								"type": "t_mapping(t_uint256,t_struct(TMon)731_storage)"
							},
							{
								"astId": 1034,
								"contract": "Tmons/facets/TMonFacet.sol:TMonFacet",
								"label": "ownerTokenIds",
								"offset": 0,
								"slot": "14",
								"type": "t_mapping(t_address,t_array(t_uint32)dyn_storage)"
							},
							{
								"astId": 1040,
								"contract": "Tmons/facets/TMonFacet.sol:TMonFacet",
								"label": "ownerTokenIdIndexes",
								"offset": 0,
								"slot": "15",
								"type": "t_mapping(t_address,t_mapping(t_uint256,t_uint256))"
							},
							{
								"astId": 1043,
								"contract": "Tmons/facets/TMonFacet.sol:TMonFacet",
								"label": "tokenIds",
								"offset": 0,
								"slot": "16",
								"type": "t_array(t_uint32)dyn_storage"
							},
							{
								"astId": 1047,
								"contract": "Tmons/facets/TMonFacet.sol:TMonFacet",
								"label": "tokenIdIndexes",
								"offset": 0,
								"slot": "17",
								"type": "t_mapping(t_uint256,t_uint256)"
							},
							{
								"astId": 1053,
								"contract": "Tmons/facets/TMonFacet.sol:TMonFacet",
								"label": "operators",
								"offset": 0,
								"slot": "18",
								"type": "t_mapping(t_address,t_mapping(t_address,t_bool))"
							},
							{
								"astId": 1057,
								"contract": "Tmons/facets/TMonFacet.sol:TMonFacet",
								"label": "approved",
								"offset": 0,
								"slot": "19",
								"type": "t_mapping(t_uint256,t_address)"
							},
							{
								"astId": 1061,
								"contract": "Tmons/facets/TMonFacet.sol:TMonFacet",
								"label": "TMonNamesUsed",
								"offset": 0,
								"slot": "20",
								"type": "t_mapping(t_string_memory_ptr,t_bool)"
							},
							{
								"astId": 1065,
								"contract": "Tmons/facets/TMonFacet.sol:TMonFacet",
								"label": "metaNonces",
								"offset": 0,
								"slot": "21",
								"type": "t_mapping(t_address,t_uint256)"
							},
							{
								"astId": 1067,
								"contract": "Tmons/facets/TMonFacet.sol:TMonFacet",
								"label": "tokenIdCounter",
								"offset": 0,
								"slot": "22",
								"type": "t_uint32"
							},
							{
								"astId": 1069,
								"contract": "Tmons/facets/TMonFacet.sol:TMonFacet",
								"label": "currentHauntId",
								"offset": 4,
								"slot": "22",
								"type": "t_uint16"
							},
							{
								"astId": 1071,
								"contract": "Tmons/facets/TMonFacet.sol:TMonFacet",
								"label": "name",
								"offset": 0,
								"slot": "23",
								"type": "t_string_storage"
							},
							{
								"astId": 1073,
								"contract": "Tmons/facets/TMonFacet.sol:TMonFacet",
								"label": "symbol",
								"offset": 0,
								"slot": "24",
								"type": "t_string_storage"
							},
							{
								"astId": 1076,
								"contract": "Tmons/facets/TMonFacet.sol:TMonFacet",
								"label": "collateralTypes",
								"offset": 0,
								"slot": "25",
								"type": "t_array(t_address)dyn_storage"
							},
							{
								"astId": 1078,
								"contract": "Tmons/facets/TMonFacet.sol:TMonFacet",
								"label": "ghstContract",
								"offset": 0,
								"slot": "26",
								"type": "t_address"
							},
							{
								"astId": 1080,
								"contract": "Tmons/facets/TMonFacet.sol:TMonFacet",
								"label": "childChainManager",
								"offset": 0,
								"slot": "27",
								"type": "t_address"
							},
							{
								"astId": 1082,
								"contract": "Tmons/facets/TMonFacet.sol:TMonFacet",
								"label": "gameManager",
								"offset": 0,
								"slot": "28",
								"type": "t_address"
							},
							{
								"astId": 1084,
								"contract": "Tmons/facets/TMonFacet.sol:TMonFacet",
								"label": "dao",
								"offset": 0,
								"slot": "29",
								"type": "t_address"
							},
							{
								"astId": 1086,
								"contract": "Tmons/facets/TMonFacet.sol:TMonFacet",
								"label": "daoTreasury",
								"offset": 0,
								"slot": "30",
								"type": "t_address"
							},
							{
								"astId": 1088,
								"contract": "Tmons/facets/TMonFacet.sol:TMonFacet",
								"label": "pixelCraft",
								"offset": 0,
								"slot": "31",
								"type": "t_address"
							},
							{
								"astId": 1090,
								"contract": "Tmons/facets/TMonFacet.sol:TMonFacet",
								"label": "rarityFarming",
								"offset": 0,
								"slot": "32",
								"type": "t_address"
							},
							{
								"astId": 1092,
								"contract": "Tmons/facets/TMonFacet.sol:TMonFacet",
								"label": "itemsBaseUri",
								"offset": 0,
								"slot": "33",
								"type": "t_string_storage"
							},
							{
								"astId": 1094,
								"contract": "Tmons/facets/TMonFacet.sol:TMonFacet",
								"label": "domainSeparator",
								"offset": 0,
								"slot": "34",
								"type": "t_bytes32"
							},
							{
								"astId": 1098,
								"contract": "Tmons/facets/TMonFacet.sol:TMonFacet",
								"label": "vrfRequestIdToTokenId",
								"offset": 0,
								"slot": "35",
								"type": "t_mapping(t_bytes32,t_uint256)"
							},
							{
								"astId": 1102,
								"contract": "Tmons/facets/TMonFacet.sol:TMonFacet",
								"label": "vrfNonces",
								"offset": 0,
								"slot": "36",
								"type": "t_mapping(t_bytes32,t_uint256)"
							},
							{
								"astId": 1104,
								"contract": "Tmons/facets/TMonFacet.sol:TMonFacet",
								"label": "keyHash",
								"offset": 0,
								"slot": "37",
								"type": "t_bytes32"
							},
							{
								"astId": 1106,
								"contract": "Tmons/facets/TMonFacet.sol:TMonFacet",
								"label": "fee",
								"offset": 0,
								"slot": "38",
								"type": "t_uint144"
							},
							{
								"astId": 1108,
								"contract": "Tmons/facets/TMonFacet.sol:TMonFacet",
								"label": "vrfCoordinator",
								"offset": 0,
								"slot": "39",
								"type": "t_address"
							},
							{
								"astId": 1110,
								"contract": "Tmons/facets/TMonFacet.sol:TMonFacet",
								"label": "nextERC1155ListingId",
								"offset": 0,
								"slot": "40",
								"type": "t_uint256"
							},
							{
								"astId": 1115,
								"contract": "Tmons/facets/TMonFacet.sol:TMonFacet",
								"label": "erc1155Listings",
								"offset": 0,
								"slot": "41",
								"type": "t_mapping(t_uint256,t_struct(ERC1155Listing)862_storage)"
							},
							{
								"astId": 1121,
								"contract": "Tmons/facets/TMonFacet.sol:TMonFacet",
								"label": "erc1155ListingHead",
								"offset": 0,
								"slot": "42",
								"type": "t_mapping(t_uint256,t_mapping(t_string_memory_ptr,t_uint256))"
							},
							{
								"astId": 1128,
								"contract": "Tmons/facets/TMonFacet.sol:TMonFacet",
								"label": "erc1155ListingListItem",
								"offset": 0,
								"slot": "43",
								"type": "t_mapping(t_string_memory_ptr,t_mapping(t_uint256,t_struct(ListingListItem)894_storage))"
							},
							{
								"astId": 1136,
								"contract": "Tmons/facets/TMonFacet.sol:TMonFacet",
								"label": "erc1155OwnerListingHead",
								"offset": 0,
								"slot": "44",
								"type": "t_mapping(t_address,t_mapping(t_uint256,t_mapping(t_string_memory_ptr,t_uint256)))"
							},
							{
								"astId": 1143,
								"contract": "Tmons/facets/TMonFacet.sol:TMonFacet",
								"label": "erc1155OwnerListingListItem",
								"offset": 0,
								"slot": "45",
								"type": "t_mapping(t_string_memory_ptr,t_mapping(t_uint256,t_struct(ListingListItem)894_storage))"
							},
							{
								"astId": 1151,
								"contract": "Tmons/facets/TMonFacet.sol:TMonFacet",
								"label": "erc1155TokenToListingId",
								"offset": 0,
								"slot": "46",
								"type": "t_mapping(t_address,t_mapping(t_uint256,t_mapping(t_address,t_uint256)))"
							},
							{
								"astId": 1153,
								"contract": "Tmons/facets/TMonFacet.sol:TMonFacet",
								"label": "listingFeeInWei",
								"offset": 0,
								"slot": "47",
								"type": "t_uint256"
							},
							{
								"astId": 1159,
								"contract": "Tmons/facets/TMonFacet.sol:TMonFacet",
								"label": "erc1155Categories",
								"offset": 0,
								"slot": "48",
								"type": "t_mapping(t_address,t_mapping(t_uint256,t_uint256))"
							},
							{
								"astId": 1161,
								"contract": "Tmons/facets/TMonFacet.sol:TMonFacet",
								"label": "nextERC721ListingId",
								"offset": 0,
								"slot": "49",
								"type": "t_uint256"
							},
							{
								"astId": 1166,
								"contract": "Tmons/facets/TMonFacet.sol:TMonFacet",
								"label": "erc721Listings",
								"offset": 0,
								"slot": "50",
								"type": "t_mapping(t_uint256,t_struct(ERC721Listing)887_storage)"
							},
							{
								"astId": 1171,
								"contract": "Tmons/facets/TMonFacet.sol:TMonFacet",
								"label": "erc721ListingListItem",
								"offset": 0,
								"slot": "51",
								"type": "t_mapping(t_uint256,t_struct(ListingListItem)894_storage)"
							},
							{
								"astId": 1177,
								"contract": "Tmons/facets/TMonFacet.sol:TMonFacet",
								"label": "erc721ListingHead",
								"offset": 0,
								"slot": "52",
								"type": "t_mapping(t_uint256,t_mapping(t_string_memory_ptr,t_uint256))"
							},
							{
								"astId": 1182,
								"contract": "Tmons/facets/TMonFacet.sol:TMonFacet",
								"label": "erc721OwnerListingListItem",
								"offset": 0,
								"slot": "53",
								"type": "t_mapping(t_uint256,t_struct(ListingListItem)894_storage)"
							},
							{
								"astId": 1190,
								"contract": "Tmons/facets/TMonFacet.sol:TMonFacet",
								"label": "erc721OwnerListingHead",
								"offset": 0,
								"slot": "54",
								"type": "t_mapping(t_address,t_mapping(t_uint256,t_mapping(t_string_memory_ptr,t_uint256)))"
							},
							{
								"astId": 1196,
								"contract": "Tmons/facets/TMonFacet.sol:TMonFacet",
								"label": "erc721Categories",
								"offset": 0,
								"slot": "55",
								"type": "t_mapping(t_address,t_mapping(t_uint256,t_uint256))"
							},
							{
								"astId": 1204,
								"contract": "Tmons/facets/TMonFacet.sol:TMonFacet",
								"label": "erc721TokenToListingId",
								"offset": 0,
								"slot": "56",
								"type": "t_mapping(t_address,t_mapping(t_uint256,t_mapping(t_address,t_uint256)))"
							},
							{
								"astId": 1208,
								"contract": "Tmons/facets/TMonFacet.sol:TMonFacet",
								"label": "sleeves",
								"offset": 0,
								"slot": "57",
								"type": "t_mapping(t_uint256,t_uint256)"
							},
							{
								"astId": 1212,
								"contract": "Tmons/facets/TMonFacet.sol:TMonFacet",
								"label": "itemManagers",
								"offset": 0,
								"slot": "58",
								"type": "t_mapping(t_address,t_bool)"
							},
							{
								"astId": 1217,
								"contract": "Tmons/facets/TMonFacet.sol:TMonFacet",
								"label": "gameManagers",
								"offset": 0,
								"slot": "59",
								"type": "t_mapping(t_address,t_struct(GameManager)901_storage)"
							},
							{
								"astId": 1222,
								"contract": "Tmons/facets/TMonFacet.sol:TMonFacet",
								"label": "hauntCollateralTypes",
								"offset": 0,
								"slot": "60",
								"type": "t_mapping(t_uint256,t_array(t_address)dyn_storage)"
							},
							{
								"astId": 1229,
								"contract": "Tmons/facets/TMonFacet.sol:TMonFacet",
								"label": "sideViewDimensions",
								"offset": 0,
								"slot": "61",
								"type": "t_mapping(t_uint256,t_mapping(t_bytes_memory_ptr,t_struct(Dimensions)740_storage))"
							},
							{
								"astId": 1235,
								"contract": "Tmons/facets/TMonFacet.sol:TMonFacet",
								"label": "petOperators",
								"offset": 0,
								"slot": "62",
								"type": "t_mapping(t_address,t_mapping(t_address,t_bool))"
							},
							{
								"astId": 1239,
								"contract": "Tmons/facets/TMonFacet.sol:TMonFacet",
								"label": "categoryToTokenAddress",
								"offset": 0,
								"slot": "63",
								"type": "t_mapping(t_uint256,t_address)"
							},
							{
								"astId": 1241,
								"contract": "Tmons/facets/TMonFacet.sol:TMonFacet",
								"label": "nextGotchiListingId",
								"offset": 0,
								"slot": "64",
								"type": "t_uint32"
							},
							{
								"astId": 1246,
								"contract": "Tmons/facets/TMonFacet.sol:TMonFacet",
								"label": "gotchiLendings",
								"offset": 0,
								"slot": "65",
								"type": "t_mapping(t_uint32,t_struct(GotchiLending)937_storage)"
							},
							{
								"astId": 1250,
								"contract": "Tmons/facets/TMonFacet.sol:TMonFacet",
								"label": "TMonToListingId",
								"offset": 0,
								"slot": "66",
								"type": "t_mapping(t_uint32,t_uint32)"
							},
							{
								"astId": 1255,
								"contract": "Tmons/facets/TMonFacet.sol:TMonFacet",
								"label": "lentTokenIds",
								"offset": 0,
								"slot": "67",
								"type": "t_mapping(t_address,t_array(t_uint32)dyn_storage)"
							},
							{
								"astId": 1261,
								"contract": "Tmons/facets/TMonFacet.sol:TMonFacet",
								"label": "lentTokenIdIndexes",
								"offset": 0,
								"slot": "68",
								"type": "t_mapping(t_address,t_mapping(t_uint32,t_uint32))"
							},
							{
								"astId": 1268,
								"contract": "Tmons/facets/TMonFacet.sol:TMonFacet",
								"label": "gotchiLendingListItem",
								"offset": 0,
								"slot": "69",
								"type": "t_mapping(t_bytes32,t_mapping(t_uint32,t_struct(LendingListItem)944_storage))"
							},
							{
								"astId": 1272,
								"contract": "Tmons/facets/TMonFacet.sol:TMonFacet",
								"label": "gotchiLendingHead",
								"offset": 0,
								"slot": "70",
								"type": "t_mapping(t_bytes32,t_uint32)"
							},
							{
								"astId": 1279,
								"contract": "Tmons/facets/TMonFacet.sol:TMonFacet",
								"label": "TMonLenderLendingListItem",
								"offset": 0,
								"slot": "71",
								"type": "t_mapping(t_bytes32,t_mapping(t_uint32,t_struct(LendingListItem)944_storage))"
							},
							{
								"astId": 1285,
								"contract": "Tmons/facets/TMonFacet.sol:TMonFacet",
								"label": "TMonLenderLendingHead",
								"offset": 0,
								"slot": "72",
								"type": "t_mapping(t_address,t_mapping(t_bytes32,t_uint32))"
							},
							{
								"astId": 1289,
								"contract": "Tmons/facets/TMonFacet.sol:TMonFacet",
								"label": "whitelists",
								"offset": 0,
								"slot": "73",
								"type": "t_array(t_struct(Whitelist)952_storage)dyn_storage"
							},
							{
								"astId": 1295,
								"contract": "Tmons/facets/TMonFacet.sol:TMonFacet",
								"label": "isWhitelisted",
								"offset": 0,
								"slot": "74",
								"type": "t_mapping(t_uint32,t_mapping(t_address,t_uint256))"
							},
							{
								"astId": 1299,
								"contract": "Tmons/facets/TMonFacet.sol:TMonFacet",
								"label": "revenueTokenAllowed",
								"offset": 0,
								"slot": "75",
								"type": "t_mapping(t_address,t_bool)"
							},
							{
								"astId": 1307,
								"contract": "Tmons/facets/TMonFacet.sol:TMonFacet",
								"label": "lendingOperators",
								"offset": 0,
								"slot": "76",
								"type": "t_mapping(t_address,t_mapping(t_address,t_mapping(t_uint32,t_bool)))"
							},
							{
								"astId": 1309,
								"contract": "Tmons/facets/TMonFacet.sol:TMonFacet",
								"label": "realmAddress",
								"offset": 0,
								"slot": "77",
								"type": "t_address"
							},
							{
								"astId": 1317,
								"contract": "Tmons/facets/TMonFacet.sol:TMonFacet",
								"label": "wearableExceptions",
								"offset": 0,
								"slot": "78",
								"type": "t_mapping(t_bytes32,t_mapping(t_uint256,t_mapping(t_uint256,t_bool)))"
							},
							{
								"astId": 1323,
								"contract": "Tmons/facets/TMonFacet.sol:TMonFacet",
								"label": "whitelistAccessRights",
								"offset": 0,
								"slot": "79",
								"type": "t_mapping(t_uint32,t_mapping(t_uint256,t_uint256))"
							},
							{
								"astId": 1330,
								"contract": "Tmons/facets/TMonFacet.sol:TMonFacet",
								"label": "whitelistGotchiBorrows",
								"offset": 0,
								"slot": "80",
								"type": "t_mapping(t_uint32,t_mapping(t_address,t_struct(UintSet)482_storage))"
							}
						],
						"numberOfBytes": "2592"
					},
					"t_struct(Dimensions)740_storage": {
						"encoding": "inplace",
						"label": "struct Dimensions",
						"members": [
							{
								"astId": 733,
								"contract": "Tmons/facets/TMonFacet.sol:TMonFacet",
								"label": "x",
								"offset": 0,
								"slot": "0",
								"type": "t_uint8"
							},
							{
								"astId": 735,
								"contract": "Tmons/facets/TMonFacet.sol:TMonFacet",
								"label": "y",
								"offset": 1,
								"slot": "0",
								"type": "t_uint8"
							},
							{
								"astId": 737,
								"contract": "Tmons/facets/TMonFacet.sol:TMonFacet",
								"label": "width",
								"offset": 2,
								"slot": "0",
								"type": "t_uint8"
							},
							{
								"astId": 739,
								"contract": "Tmons/facets/TMonFacet.sol:TMonFacet",
								"label": "height",
								"offset": 3,
								"slot": "0",
								"type": "t_uint8"
							}
						],
						"numberOfBytes": "32"
					},
					"t_struct(ERC1155Listing)862_storage": {
						"encoding": "inplace",
						"label": "struct ERC1155Listing",
						"members": [
							{
								"astId": 833,
								"contract": "Tmons/facets/TMonFacet.sol:TMonFacet",
								"label": "listingId",
								"offset": 0,
								"slot": "0",
								"type": "t_uint256"
							},
							{
								"astId": 835,
								"contract": "Tmons/facets/TMonFacet.sol:TMonFacet",
								"label": "seller",
								"offset": 0,
								"slot": "1",
								"type": "t_address"
							},
							{
								"astId": 837,
								"contract": "Tmons/facets/TMonFacet.sol:TMonFacet",
								"label": "erc1155TokenAddress",
								"offset": 0,
								"slot": "2",
								"type": "t_address"
							},
							{
								"astId": 839,
								"contract": "Tmons/facets/TMonFacet.sol:TMonFacet",
								"label": "erc1155TypeId",
								"offset": 0,
								"slot": "3",
								"type": "t_uint256"
							},
							{
								"astId": 841,
								"contract": "Tmons/facets/TMonFacet.sol:TMonFacet",
								"label": "category",
								"offset": 0,
								"slot": "4",
								"type": "t_uint256"
							},
							{
								"astId": 843,
								"contract": "Tmons/facets/TMonFacet.sol:TMonFacet",
								"label": "quantity",
								"offset": 0,
								"slot": "5",
								"type": "t_uint256"
							},
							{
								"astId": 845,
								"contract": "Tmons/facets/TMonFacet.sol:TMonFacet",
								"label": "priceInWei",
								"offset": 0,
								"slot": "6",
								"type": "t_uint256"
							},
							{
								"astId": 847,
								"contract": "Tmons/facets/TMonFacet.sol:TMonFacet",
								"label": "timeCreated",
								"offset": 0,
								"slot": "7",
								"type": "t_uint256"
							},
							{
								"astId": 849,
								"contract": "Tmons/facets/TMonFacet.sol:TMonFacet",
								"label": "timeLastPurchased",
								"offset": 0,
								"slot": "8",
								"type": "t_uint256"
							},
							{
								"astId": 851,
								"contract": "Tmons/facets/TMonFacet.sol:TMonFacet",
								"label": "sourceListingId",
								"offset": 0,
								"slot": "9",
								"type": "t_uint256"
							},
							{
								"astId": 853,
								"contract": "Tmons/facets/TMonFacet.sol:TMonFacet",
								"label": "sold",
								"offset": 0,
								"slot": "10",
								"type": "t_bool"
							},
							{
								"astId": 855,
								"contract": "Tmons/facets/TMonFacet.sol:TMonFacet",
								"label": "cancelled",
								"offset": 1,
								"slot": "10",
								"type": "t_bool"
							},
							{
								"astId": 859,
								"contract": "Tmons/facets/TMonFacet.sol:TMonFacet",
								"label": "principalSplit",
								"offset": 0,
								"slot": "11",
								"type": "t_array(t_uint16)2_storage"
							},
							{
								"astId": 861,
								"contract": "Tmons/facets/TMonFacet.sol:TMonFacet",
								"label": "affiliate",
								"offset": 0,
								"slot": "12",
								"type": "t_address"
							}
						],
						"numberOfBytes": "416"
					},
					"t_struct(ERC721Listing)887_storage": {
						"encoding": "inplace",
						"label": "struct ERC721Listing",
						"members": [
							{
								"astId": 864,
								"contract": "Tmons/facets/TMonFacet.sol:TMonFacet",
								"label": "listingId",
								"offset": 0,
								"slot": "0",
								"type": "t_uint256"
							},
							{
								"astId": 866,
								"contract": "Tmons/facets/TMonFacet.sol:TMonFacet",
								"label": "seller",
								"offset": 0,
								"slot": "1",
								"type": "t_address"
							},
							{
								"astId": 868,
								"contract": "Tmons/facets/TMonFacet.sol:TMonFacet",
								"label": "erc721TokenAddress",
								"offset": 0,
								"slot": "2",
								"type": "t_address"
							},
							{
								"astId": 870,
								"contract": "Tmons/facets/TMonFacet.sol:TMonFacet",
								"label": "erc721TokenId",
								"offset": 0,
								"slot": "3",
								"type": "t_uint256"
							},
							{
								"astId": 872,
								"contract": "Tmons/facets/TMonFacet.sol:TMonFacet",
								"label": "category",
								"offset": 0,
								"slot": "4",
								"type": "t_uint256"
							},
							{
								"astId": 874,
								"contract": "Tmons/facets/TMonFacet.sol:TMonFacet",
								"label": "priceInWei",
								"offset": 0,
								"slot": "5",
								"type": "t_uint256"
							},
							{
								"astId": 876,
								"contract": "Tmons/facets/TMonFacet.sol:TMonFacet",
								"label": "timeCreated",
								"offset": 0,
								"slot": "6",
								"type": "t_uint256"
							},
							{
								"astId": 878,
								"contract": "Tmons/facets/TMonFacet.sol:TMonFacet",
								"label": "timePurchased",
								"offset": 0,
								"slot": "7",
								"type": "t_uint256"
							},
							{
								"astId": 880,
								"contract": "Tmons/facets/TMonFacet.sol:TMonFacet",
								"label": "cancelled",
								"offset": 0,
								"slot": "8",
								"type": "t_bool"
							},
							{
								"astId": 884,
								"contract": "Tmons/facets/TMonFacet.sol:TMonFacet",
								"label": "principalSplit",
								"offset": 0,
								"slot": "9",
								"type": "t_array(t_uint16)2_storage"
							},
							{
								"astId": 886,
								"contract": "Tmons/facets/TMonFacet.sol:TMonFacet",
								"label": "affiliate",
								"offset": 0,
								"slot": "10",
								"type": "t_address"
							}
						],
						"numberOfBytes": "352"
					},
					"t_struct(GameManager)901_storage": {
						"encoding": "inplace",
						"label": "struct GameManager",
						"members": [
							{
								"astId": 896,
								"contract": "Tmons/facets/TMonFacet.sol:TMonFacet",
								"label": "limit",
								"offset": 0,
								"slot": "0",
								"type": "t_uint256"
							},
							{
								"astId": 898,
								"contract": "Tmons/facets/TMonFacet.sol:TMonFacet",
								"label": "balance",
								"offset": 0,
								"slot": "1",
								"type": "t_uint256"
							},
							{
								"astId": 900,
								"contract": "Tmons/facets/TMonFacet.sol:TMonFacet",
								"label": "refreshTime",
								"offset": 0,
								"slot": "2",
								"type": "t_uint256"
							}
						],
						"numberOfBytes": "96"
					},
					"t_struct(GotchiLending)937_storage": {
						"encoding": "inplace",
						"label": "struct GotchiLending",
						"members": [
							{
								"astId": 903,
								"contract": "Tmons/facets/TMonFacet.sol:TMonFacet",
								"label": "lender",
								"offset": 0,
								"slot": "0",
								"type": "t_address"
							},
							{
								"astId": 905,
								"contract": "Tmons/facets/TMonFacet.sol:TMonFacet",
								"label": "initialCost",
								"offset": 20,
								"slot": "0",
								"type": "t_uint96"
							},
							{
								"astId": 907,
								"contract": "Tmons/facets/TMonFacet.sol:TMonFacet",
								"label": "borrower",
								"offset": 0,
								"slot": "1",
								"type": "t_address"
							},
							{
								"astId": 909,
								"contract": "Tmons/facets/TMonFacet.sol:TMonFacet",
								"label": "listingId",
								"offset": 20,
								"slot": "1",
								"type": "t_uint32"
							},
							{
								"astId": 911,
								"contract": "Tmons/facets/TMonFacet.sol:TMonFacet",
								"label": "erc721TokenId",
								"offset": 24,
								"slot": "1",
								"type": "t_uint32"
							},
							{
								"astId": 913,
								"contract": "Tmons/facets/TMonFacet.sol:TMonFacet",
								"label": "whitelistId",
								"offset": 28,
								"slot": "1",
								"type": "t_uint32"
							},
							{
								"astId": 915,
								"contract": "Tmons/facets/TMonFacet.sol:TMonFacet",
								"label": "originalOwner",
								"offset": 0,
								"slot": "2",
								"type": "t_address"
							},
							{
								"astId": 917,
								"contract": "Tmons/facets/TMonFacet.sol:TMonFacet",
								"label": "timeCreated",
								"offset": 20,
								"slot": "2",
								"type": "t_uint40"
							},
							{
								"astId": 919,
								"contract": "Tmons/facets/TMonFacet.sol:TMonFacet",
								"label": "timeAgreed",
								"offset": 25,
								"slot": "2",
								"type": "t_uint40"
							},
							{
								"astId": 921,
								"contract": "Tmons/facets/TMonFacet.sol:TMonFacet",
								"label": "canceled",
								"offset": 30,
								"slot": "2",
								"type": "t_bool"
							},
							{
								"astId": 923,
								"contract": "Tmons/facets/TMonFacet.sol:TMonFacet",
								"label": "completed",
								"offset": 31,
								"slot": "2",
								"type": "t_bool"
							},
							{
								"astId": 925,
								"contract": "Tmons/facets/TMonFacet.sol:TMonFacet",
								"label": "thirdParty",
								"offset": 0,
								"slot": "3",
								"type": "t_address"
							},
							{
								"astId": 929,
								"contract": "Tmons/facets/TMonFacet.sol:TMonFacet",
								"label": "revenueSplit",
								"offset": 0,
								"slot": "4",
								"type": "t_array(t_uint8)3_storage"
							},
							{
								"astId": 931,
								"contract": "Tmons/facets/TMonFacet.sol:TMonFacet",
								"label": "lastClaimed",
								"offset": 0,
								"slot": "5",
								"type": "t_uint40"
							},
							{
								"astId": 933,
								"contract": "Tmons/facets/TMonFacet.sol:TMonFacet",
								"label": "period",
								"offset": 5,
								"slot": "5",
								"type": "t_uint32"
							},
							{
								"astId": 936,
								"contract": "Tmons/facets/TMonFacet.sol:TMonFacet",
								"label": "revenueTokens",
								"offset": 0,
								"slot": "6",
								"type": "t_array(t_address)dyn_storage"
							}
						],
						"numberOfBytes": "224"
					},
					"t_struct(Haunt)805_storage": {
						"encoding": "inplace",
						"label": "struct Haunt",
						"members": [
							{
								"astId": 798,
								"contract": "Tmons/facets/TMonFacet.sol:TMonFacet",
								"label": "hauntMaxSize",
								"offset": 0,
								"slot": "0",
								"type": "t_uint256"
							},
							{
								"astId": 800,
								"contract": "Tmons/facets/TMonFacet.sol:TMonFacet",
								"label": "portalPrice",
								"offset": 0,
								"slot": "1",
								"type": "t_uint256"
							},
							{
								"astId": 802,
								"contract": "Tmons/facets/TMonFacet.sol:TMonFacet",
								"label": "bodyColor",
								"offset": 0,
								"slot": "2",
								"type": "t_bytes3"
							},
							{
								"astId": 804,
								"contract": "Tmons/facets/TMonFacet.sol:TMonFacet",
								"label": "totalCount",
								"offset": 3,
								"slot": "2",
								"type": "t_uint24"
							}
						],
						"numberOfBytes": "96"
					},
					"t_struct(ItemType)783_storage": {
						"encoding": "inplace",
						"label": "struct ItemType",
						"members": [
							{
								"astId": 742,
								"contract": "Tmons/facets/TMonFacet.sol:TMonFacet",
								"label": "name",
								"offset": 0,
								"slot": "0",
								"type": "t_string_storage"
							},
							{
								"astId": 744,
								"contract": "Tmons/facets/TMonFacet.sol:TMonFacet",
								"label": "description",
								"offset": 0,
								"slot": "1",
								"type": "t_string_storage"
							},
							{
								"astId": 746,
								"contract": "Tmons/facets/TMonFacet.sol:TMonFacet",
								"label": "author",
								"offset": 0,
								"slot": "2",
								"type": "t_string_storage"
							},
							{
								"astId": 750,
								"contract": "Tmons/facets/TMonFacet.sol:TMonFacet",
								"label": "traitModifiers",
								"offset": 0,
								"slot": "3",
								"type": "t_array(t_int8)6_storage"
							},
							{
								"astId": 754,
								"contract": "Tmons/facets/TMonFacet.sol:TMonFacet",
								"label": "slotPositions",
								"offset": 0,
								"slot": "4",
								"type": "t_array(t_bool)16_storage"
							},
							{
								"astId": 757,
								"contract": "Tmons/facets/TMonFacet.sol:TMonFacet",
								"label": "allowedCollaterals",
								"offset": 0,
								"slot": "5",
								"type": "t_array(t_uint8)dyn_storage"
							},
							{
								"astId": 760,
								"contract": "Tmons/facets/TMonFacet.sol:TMonFacet",
								"label": "dimensions",
								"offset": 0,
								"slot": "6",
								"type": "t_struct(Dimensions)740_storage"
							},
							{
								"astId": 762,
								"contract": "Tmons/facets/TMonFacet.sol:TMonFacet",
								"label": "ghstPrice",
								"offset": 0,
								"slot": "7",
								"type": "t_uint256"
							},
							{
								"astId": 764,
								"contract": "Tmons/facets/TMonFacet.sol:TMonFacet",
								"label": "maxQuantity",
								"offset": 0,
								"slot": "8",
								"type": "t_uint256"
							},
							{
								"astId": 766,
								"contract": "Tmons/facets/TMonFacet.sol:TMonFacet",
								"label": "totalQuantity",
								"offset": 0,
								"slot": "9",
								"type": "t_uint256"
							},
							{
								"astId": 768,
								"contract": "Tmons/facets/TMonFacet.sol:TMonFacet",
								"label": "svgId",
								"offset": 0,
								"slot": "10",
								"type": "t_uint32"
							},
							{
								"astId": 770,
								"contract": "Tmons/facets/TMonFacet.sol:TMonFacet",
								"label": "rarityScoreModifier",
								"offset": 4,
								"slot": "10",
								"type": "t_uint8"
							},
							{
								"astId": 772,
								"contract": "Tmons/facets/TMonFacet.sol:TMonFacet",
								"label": "canPurchaseWithGhst",
								"offset": 5,
								"slot": "10",
								"type": "t_bool"
							},
							{
								"astId": 774,
								"contract": "Tmons/facets/TMonFacet.sol:TMonFacet",
								"label": "minLevel",
								"offset": 6,
								"slot": "10",
								"type": "t_uint16"
							},
							{
								"astId": 776,
								"contract": "Tmons/facets/TMonFacet.sol:TMonFacet",
								"label": "canBeTransferred",
								"offset": 8,
								"slot": "10",
								"type": "t_bool"
							},
							{
								"astId": 778,
								"contract": "Tmons/facets/TMonFacet.sol:TMonFacet",
								"label": "category",
								"offset": 9,
								"slot": "10",
								"type": "t_uint8"
							},
							{
								"astId": 780,
								"contract": "Tmons/facets/TMonFacet.sol:TMonFacet",
								"label": "kinshipBonus",
								"offset": 10,
								"slot": "10",
								"type": "t_int16"
							},
							{
								"astId": 782,
								"contract": "Tmons/facets/TMonFacet.sol:TMonFacet",
								"label": "experienceBonus",
								"offset": 12,
								"slot": "10",
								"type": "t_uint32"
							}
						],
						"numberOfBytes": "352"
					},
					"t_struct(LendingListItem)944_storage": {
						"encoding": "inplace",
						"label": "struct LendingListItem",
						"members": [
							{
								"astId": 939,
								"contract": "Tmons/facets/TMonFacet.sol:TMonFacet",
								"label": "parentListingId",
								"offset": 0,
								"slot": "0",
								"type": "t_uint32"
							},
							{
								"astId": 941,
								"contract": "Tmons/facets/TMonFacet.sol:TMonFacet",
								"label": "listingId",
								"offset": 0,
								"slot": "1",
								"type": "t_uint256"
							},
							{
								"astId": 943,
								"contract": "Tmons/facets/TMonFacet.sol:TMonFacet",
								"label": "childListingId",
								"offset": 0,
								"slot": "2",
								"type": "t_uint32"
							}
						],
						"numberOfBytes": "96"
					},
					"t_struct(ListingListItem)894_storage": {
						"encoding": "inplace",
						"label": "struct ListingListItem",
						"members": [
							{
								"astId": 889,
								"contract": "Tmons/facets/TMonFacet.sol:TMonFacet",
								"label": "parentListingId",
								"offset": 0,
								"slot": "0",
								"type": "t_uint256"
							},
							{
								"astId": 891,
								"contract": "Tmons/facets/TMonFacet.sol:TMonFacet",
								"label": "listingId",
								"offset": 0,
								"slot": "1",
								"type": "t_uint256"
							},
							{
								"astId": 893,
								"contract": "Tmons/facets/TMonFacet.sol:TMonFacet",
								"label": "childListingId",
								"offset": 0,
								"slot": "2",
								"type": "t_uint256"
							}
						],
						"numberOfBytes": "96"
					},
					"t_struct(Set)10_storage": {
						"encoding": "inplace",
						"label": "struct EnumerableSet.Set",
						"members": [
							{
								"astId": 5,
								"contract": "Tmons/facets/TMonFacet.sol:TMonFacet",
								"label": "_values",
								"offset": 0,
								"slot": "0",
								"type": "t_array(t_bytes32)dyn_storage"
							},
							{
								"astId": 9,
								"contract": "Tmons/facets/TMonFacet.sol:TMonFacet",
								"label": "_indexes",
								"offset": 0,
								"slot": "1",
								"type": "t_mapping(t_bytes32,t_uint256)"
							}
						],
						"numberOfBytes": "64"
					},
					"t_struct(SvgLayer)812_storage": {
						"encoding": "inplace",
						"label": "struct SvgLayer",
						"members": [
							{
								"astId": 807,
								"contract": "Tmons/facets/TMonFacet.sol:TMonFacet",
								"label": "svgLayersContract",
								"offset": 0,
								"slot": "0",
								"type": "t_address"
							},
							{
								"astId": 809,
								"contract": "Tmons/facets/TMonFacet.sol:TMonFacet",
								"label": "offset",
								"offset": 20,
								"slot": "0",
								"type": "t_uint16"
							},
							{
								"astId": 811,
								"contract": "Tmons/facets/TMonFacet.sol:TMonFacet",
								"label": "size",
								"offset": 22,
								"slot": "0",
								"type": "t_uint16"
							}
						],
						"numberOfBytes": "32"
					},
					"t_struct(TMon)731_storage": {
						"encoding": "inplace",
						"label": "struct TMon",
						"members": [
							{
								"astId": 692,
								"contract": "Tmons/facets/TMonFacet.sol:TMonFacet",
								"label": "equippedWearables",
								"offset": 0,
								"slot": "0",
								"type": "t_array(t_uint16)16_storage"
							},
							{
								"astId": 696,
								"contract": "Tmons/facets/TMonFacet.sol:TMonFacet",
								"label": "temporaryTraitBoosts",
								"offset": 0,
								"slot": "1",
								"type": "t_array(t_int8)6_storage"
							},
							{
								"astId": 700,
								"contract": "Tmons/facets/TMonFacet.sol:TMonFacet",
								"label": "numericTraits",
								"offset": 0,
								"slot": "2",
								"type": "t_array(t_int16)6_storage"
							},
							{
								"astId": 702,
								"contract": "Tmons/facets/TMonFacet.sol:TMonFacet",
								"label": "name",
								"offset": 0,
								"slot": "3",
								"type": "t_string_storage"
							},
							{
								"astId": 704,
								"contract": "Tmons/facets/TMonFacet.sol:TMonFacet",
								"label": "randomNumber",
								"offset": 0,
								"slot": "4",
								"type": "t_uint256"
							},
							{
								"astId": 706,
								"contract": "Tmons/facets/TMonFacet.sol:TMonFacet",
								"label": "experience",
								"offset": 0,
								"slot": "5",
								"type": "t_uint256"
							},
							{
								"astId": 708,
								"contract": "Tmons/facets/TMonFacet.sol:TMonFacet",
								"label": "minimumStake",
								"offset": 0,
								"slot": "6",
								"type": "t_uint256"
							},
							{
								"astId": 710,
								"contract": "Tmons/facets/TMonFacet.sol:TMonFacet",
								"label": "usedSkillPoints",
								"offset": 0,
								"slot": "7",
								"type": "t_uint256"
							},
							{
								"astId": 712,
								"contract": "Tmons/facets/TMonFacet.sol:TMonFacet",
								"label": "interactionCount",
								"offset": 0,
								"slot": "8",
								"type": "t_uint256"
							},
							{
								"astId": 714,
								"contract": "Tmons/facets/TMonFacet.sol:TMonFacet",
								"label": "collateralType",
								"offset": 0,
								"slot": "9",
								"type": "t_address"
							},
							{
								"astId": 716,
								"contract": "Tmons/facets/TMonFacet.sol:TMonFacet",
								"label": "claimTime",
								"offset": 20,
								"slot": "9",
								"type": "t_uint40"
							},
							{
								"astId": 718,
								"contract": "Tmons/facets/TMonFacet.sol:TMonFacet",
								"label": "lastTemporaryBoost",
								"offset": 25,
								"slot": "9",
								"type": "t_uint40"
							},
							{
								"astId": 720,
								"contract": "Tmons/facets/TMonFacet.sol:TMonFacet",
								"label": "hauntId",
								"offset": 30,
								"slot": "9",
								"type": "t_uint16"
							},
							{
								"astId": 722,
								"contract": "Tmons/facets/TMonFacet.sol:TMonFacet",
								"label": "owner",
								"offset": 0,
								"slot": "10",
								"type": "t_address"
							},
							{
								"astId": 724,
								"contract": "Tmons/facets/TMonFacet.sol:TMonFacet",
								"label": "status",
								"offset": 20,
								"slot": "10",
								"type": "t_uint8"
							},
							{
								"astId": 726,
								"contract": "Tmons/facets/TMonFacet.sol:TMonFacet",
								"label": "lastInteracted",
								"offset": 21,
								"slot": "10",
								"type": "t_uint40"
							},
							{
								"astId": 728,
								"contract": "Tmons/facets/TMonFacet.sol:TMonFacet",
								"label": "locked",
								"offset": 26,
								"slot": "10",
								"type": "t_bool"
							},
							{
								"astId": 730,
								"contract": "Tmons/facets/TMonFacet.sol:TMonFacet",
								"label": "escrow",
								"offset": 0,
								"slot": "11",
								"type": "t_address"
							}
						],
						"numberOfBytes": "384"
					},
					"t_struct(TMonCollateralTypeInfo)831_storage": {
						"encoding": "inplace",
						"label": "struct TMonCollateralTypeInfo",
						"members": [
							{
								"astId": 816,
								"contract": "Tmons/facets/TMonFacet.sol:TMonFacet",
								"label": "modifiers",
								"offset": 0,
								"slot": "0",
								"type": "t_array(t_int16)6_storage"
							},
							{
								"astId": 818,
								"contract": "Tmons/facets/TMonFacet.sol:TMonFacet",
								"label": "primaryColor",
								"offset": 0,
								"slot": "1",
								"type": "t_bytes3"
							},
							{
								"astId": 820,
								"contract": "Tmons/facets/TMonFacet.sol:TMonFacet",
								"label": "secondaryColor",
								"offset": 3,
								"slot": "1",
								"type": "t_bytes3"
							},
							{
								"astId": 822,
								"contract": "Tmons/facets/TMonFacet.sol:TMonFacet",
								"label": "cheekColor",
								"offset": 6,
								"slot": "1",
								"type": "t_bytes3"
							},
							{
								"astId": 824,
								"contract": "Tmons/facets/TMonFacet.sol:TMonFacet",
								"label": "svgId",
								"offset": 9,
								"slot": "1",
								"type": "t_uint8"
							},
							{
								"astId": 826,
								"contract": "Tmons/facets/TMonFacet.sol:TMonFacet",
								"label": "eyeShapeSvgId",
								"offset": 10,
								"slot": "1",
								"type": "t_uint8"
							},
							{
								"astId": 828,
								"contract": "Tmons/facets/TMonFacet.sol:TMonFacet",
								"label": "conversionRate",
								"offset": 11,
								"slot": "1",
								"type": "t_uint16"
							},
							{
								"astId": 830,
								"contract": "Tmons/facets/TMonFacet.sol:TMonFacet",
								"label": "delisted",
								"offset": 13,
								"slot": "1",
								"type": "t_bool"
							}
						],
						"numberOfBytes": "64"
					},
					"t_struct(UintSet)482_storage": {
						"encoding": "inplace",
						"label": "struct EnumerableSet.UintSet",
						"members": [
							{
								"astId": 481,
								"contract": "Tmons/facets/TMonFacet.sol:TMonFacet",
								"label": "_inner",
								"offset": 0,
								"slot": "0",
								"type": "t_struct(Set)10_storage"
							}
						],
						"numberOfBytes": "64"
					},
					"t_struct(WearableSet)796_storage": {
						"encoding": "inplace",
						"label": "struct WearableSet",
						"members": [
							{
								"astId": 785,
								"contract": "Tmons/facets/TMonFacet.sol:TMonFacet",
								"label": "name",
								"offset": 0,
								"slot": "0",
								"type": "t_string_storage"
							},
							{
								"astId": 788,
								"contract": "Tmons/facets/TMonFacet.sol:TMonFacet",
								"label": "allowedCollaterals",
								"offset": 0,
								"slot": "1",
								"type": "t_array(t_uint8)dyn_storage"
							},
							{
								"astId": 791,
								"contract": "Tmons/facets/TMonFacet.sol:TMonFacet",
								"label": "wearableIds",
								"offset": 0,
								"slot": "2",
								"type": "t_array(t_uint16)dyn_storage"
							},
							{
								"astId": 795,
								"contract": "Tmons/facets/TMonFacet.sol:TMonFacet",
								"label": "traitsBonuses",
								"offset": 0,
								"slot": "3",
								"type": "t_array(t_int8)5_storage"
							}
						],
						"numberOfBytes": "128"
					},
					"t_struct(Whitelist)952_storage": {
						"encoding": "inplace",
						"label": "struct Whitelist",
						"members": [
							{
								"astId": 946,
								"contract": "Tmons/facets/TMonFacet.sol:TMonFacet",
								"label": "owner",
								"offset": 0,
								"slot": "0",
								"type": "t_address"
							},
							{
								"astId": 948,
								"contract": "Tmons/facets/TMonFacet.sol:TMonFacet",
								"label": "name",
								"offset": 0,
								"slot": "1",
								"type": "t_string_storage"
							},
							{
								"astId": 951,
								"contract": "Tmons/facets/TMonFacet.sol:TMonFacet",
								"label": "addresses",
								"offset": 0,
								"slot": "2",
								"type": "t_array(t_address)dyn_storage"
							}
						],
						"numberOfBytes": "96"
					},
					"t_uint144": {
						"encoding": "inplace",
						"label": "uint144",
						"numberOfBytes": "18"
					},
					"t_uint16": {
						"encoding": "inplace",
						"label": "uint16",
						"numberOfBytes": "2"
					},
					"t_uint24": {
						"encoding": "inplace",
						"label": "uint24",
						"numberOfBytes": "3"
					},
					"t_uint256": {
						"encoding": "inplace",
						"label": "uint256",
						"numberOfBytes": "32"
					},
					"t_uint32": {
						"encoding": "inplace",
						"label": "uint32",
						"numberOfBytes": "4"
					},
					"t_uint40": {
						"encoding": "inplace",
						"label": "uint40",
						"numberOfBytes": "5"
					},
					"t_uint8": {
						"encoding": "inplace",
						"label": "uint8",
						"numberOfBytes": "1"
					},
					"t_uint96": {
						"encoding": "inplace",
						"label": "uint96",
						"numberOfBytes": "12"
					}
				}
			},
			"userdoc": {
				"kind": "user",
				"methods": {
					"balanceOf(address)": {
						"notice": "Count all NFTs assigned to an owner"
					},
					"totalSupply()": {
						"notice": "Query the universal totalSupply of all NFTs ever minted"
					}
				},
				"version": 1
			}
		}
	}
}